EMPLOYEEBOB B   411464GUNNAR WENZ         SWIMMING  000000000000000095995472920131018
EMPLOYEEBOB B   411465GRAHAM WENZ         SWIMMING  0000000000000000859554729
EMPLOYEEJEN S   413579DEBBIE BLUM         WALKING   0000000000000000755854729
EMPLOYEEJEN S   417362CAROL AWE           RUNNING   0000020000000000959854729
EMPLOYEENONE    404153SANDY RASSBACH      CYCLING   0000016098150000999854729
EMPLOYEENONE    404512JOHN RASSBACH       WALKING   0000000000000000759854729
EMPLOYEENONE    416752JAMIE SANDE         LIFTING   0000000000000001000054729
EMPLOYEENONE    417253CHRISTENA O'BRIAN   NONE      0000000000000001000054726
MANAGER NONE    103521LINDA RUSHMAN       WALKING   0000000000000000859854729
MANAGER NONE    105671LYNDA NESS          NONE      0000000000000000000054729
MEMBER  BOB B   654100SAMUEL WENZ         LIFTING   0560005000000000807954729
MEMBER  BOB B   654101DENISE WENZ         LIFTING   0560010000200980879854729
MEMBER  BOB B   654102GAGE WENZ           LIFTING   0560010000000000999954729
MEMBER  BOB B   654102GAVIN WENZ          LIFTING   0560010000000001000054729
MEMBER  BOB B   722140JAMIE FRIEDRICH     RACING    1000030000000001000054729
MEMBER  NONE    741523BOB BLUM            CYCLING   0560000000000000855054729
MEMBER  NONE    758412DYLAN MALNOREY      WRESTLING 1000000000000000989954729
TRAINER NONE    204501JENNIFER SHERINBROW TRAINING  0000004050500501000054702
TRAINER NONE    205162VICKI DELANEY       CROSSFIT  0000000000000001000054726
TRAINER NONE    205810LES WELCH           CYCLING   0000000000000001000054729